{
  "contractName": "DocumentVerification",
  "abi": [
    {
      "anonymous": false,
      "inputs": [
        {
          "indexed": true,
          "internalType": "address",
          "name": "user",
          "type": "address"
        },
        {
          "indexed": false,
          "internalType": "string",
          "name": "ipfsHash",
          "type": "string"
        },
        {
          "indexed": false,
          "internalType": "uint256",
          "name": "timestamp",
          "type": "uint256"
        }
      ],
      "name": "DocumentUploaded",
      "type": "event"
    },
    {
      "inputs": [
        {
          "internalType": "string",
          "name": "ipfsHash",
          "type": "string"
        }
      ],
      "name": "uploadDocument",
      "outputs": [],
      "stateMutability": "nonpayable",
      "type": "function"
    },
    {
      "inputs": [
        {
          "internalType": "address",
          "name": "user",
          "type": "address"
        }
      ],
      "name": "getDocuments",
      "outputs": [
        {
          "components": [
            {
              "internalType": "string",
              "name": "ipfsHash",
              "type": "string"
            },
            {
              "internalType": "uint256",
              "name": "timestamp",
              "type": "uint256"
            }
          ],
          "internalType": "struct DocumentVerification.Document[]",
          "name": "",
          "type": "tuple[]"
        }
      ],
      "stateMutability": "view",
      "type": "function",
      "constant": true
    }
  ],
  "bytecode": "0x608060405234801561001057600080fd5b50610823806100206000396000f3fe608060405234801561001057600080fd5b50600436106100365760003560e01c806327f50a2d1461003b578063b7f5576d1461006b575b600080fd5b610055600480360381019061005091906103de565b610087565b604051610062919061059e565b60405180910390f35b61008560048036038101906100809190610407565b6101c0565b005b60606000808373ffffffffffffffffffffffffffffffffffffffff1673ffffffffffffffffffffffffffffffffffffffff168152602001908152602001600020805480602002602001604051908101604052809291908181526020016000905b828210156101b5578382906000526020600020906002020160405180604001604052908160008201805461011a90610735565b80601f016020809104026020016040519081016040528092919081815260200182805461014690610735565b80156101935780601f1061016857610100808354040283529160200191610193565b820191906000526020600020905b81548152906001019060200180831161017657829003601f168201915b50505050508152602001600182015481525050815260200190600101906100e7565b505050509050919050565b600060405180604001604052808381526020014281525090506000803373ffffffffffffffffffffffffffffffffffffffff1673ffffffffffffffffffffffffffffffffffffffff168152602001908152602001600020819080600181540180825580915050600190039060005260206000209060020201600090919091909150600082015181600001908051906020019061025d9291906102be565b506020820151816001015550503373ffffffffffffffffffffffffffffffffffffffff167f2d3155c543cac1f38e4f6112f8c4f90f3fc9a6ae7f7ec0c6e0b1c88c92e332af83426040516102b29291906105c0565b60405180910390a25050565b8280546102ca90610735565b90600052602060002090601f0160209004810192826102ec5760008555610333565b82601f1061030557805160ff1916838001178555610333565b82800160010185558215610333579182015b82811115610332578251825591602001919060010190610317565b5b5090506103409190610344565b5090565b5b8082111561035d576000816000905550600101610345565b5090565b600061037461036f84610621565b6105f0565b90508281526020810184848401111561038c57600080fd5b6103978482856106f3565b509392505050565b6000813590506103ae816107d6565b92915050565b600082601f8301126103c557600080fd5b81356103d5848260208601610361565b91505092915050565b6000602082840312156103f057600080fd5b60006103fe8482850161039f565b91505092915050565b60006020828403121561041957600080fd5b600082013567ffffffffffffffff81111561043357600080fd5b61043f848285016103b4565b91505092915050565b60006104548383610543565b905092915050565b600061046782610661565b6104718185610684565b93508360208202850161048385610651565b8060005b858110156104bf57848403895281516104a08582610448565b94506104ab83610677565b925060208a01995050600181019050610487565b50829750879550505050505092915050565b60006104dc8261066c565b6104e68185610695565b93506104f6818560208601610702565b6104ff816107c5565b840191505092915050565b60006105158261066c565b61051f81856106a6565b935061052f818560208601610702565b610538816107c5565b840191505092915050565b6000604083016000830151848203600086015261056082826104d1565b91505060208301516105756020860182610580565b508091505092915050565b610589816106e9565b82525050565b610598816106e9565b82525050565b600060208201905081810360008301526105b8818461045c565b905092915050565b600060408201905081810360008301526105da818561050a565b90506105e9602083018461058f565b9392505050565b6000604051905081810181811067ffffffffffffffff8211171561061757610616610796565b5b8060405250919050565b600067ffffffffffffffff82111561063c5761063b610796565b5b601f19601f8301169050602081019050919050565b6000819050602082019050919050565b600081519050919050565b600081519050919050565b6000602082019050919050565b600082825260208201905092915050565b600082825260208201905092915050565b600082825260208201905092915050565b60006106c2826106c9565b9050919050565b600073ffffffffffffffffffffffffffffffffffffffff82169050919050565b6000819050919050565b82818337600083830152505050565b60005b83811015610720578082015181840152602081019050610705565b8381111561072f576000848401525b50505050565b6000600282049050600182168061074d57607f821691505b6020821081141561076157610760610767565b5b50919050565b7f4e487b7100000000000000000000000000000000000000000000000000000000600052602260045260246000fd5b7f4e487b7100000000000000000000000000000000000000000000000000000000600052604160045260246000fd5b6000601f19601f8301169050919050565b6107df816106b7565b81146107ea57600080fd5b5056fea26469706673582212201c8d65750861f7d27c67450cafd3df92d4d751810d07b8bd04b773c7fbf08e3764736f6c63430008000033",
  "immutableReferences": {},
  "source": "// SPDX-License-Identifier: MIT \n\npragma solidity ^0.8.0;\n\ncontract DocumentVerification {\n    struct Document {\n        string ipfsHash;\n        uint256 timestamp;\n    }\n\n    mapping(address => Document[]) private documents;\n\n    event DocumentUploaded(address indexed user, string ipfsHash, uint256 timestamp);\n\n    function uploadDocument(string memory ipfsHash) public {\n        Document memory newDoc = Document(ipfsHash, block.timestamp);\n        documents[msg.sender].push(newDoc);\n        emit DocumentUploaded(msg.sender, ipfsHash, block.timestamp);\n    }\n\n    function getDocuments(address user) public view returns (Document[] memory) {\n        return documents[user];\n    }\n}",
  "sourcePath": "/Users/bahadir/Documents/ts/contracts/DocumentVerification.sol",
  "compiler": {
    "name": "solc",
    "version": "0.8.0+commit.c7dfd78e.Emscripten.clang"
  },
  "schemaVersion": "3.4.16",
  "updatedAt": "2024-06-03T17:06:55.681Z",
  "networkType": "ethereum",
  "devdoc": {
    "kind": "dev",
    "methods": {},
    "version": 1
  },
  "userdoc": {
    "kind": "user",
    "methods": {},
    "version": 1
  }
}